:100000000C9435000C945D000C945D000C945D0024
:100010000C945D000C945D000C945D000C945D00EC
:100020000C945D000C945D000C945D000C945D00DC
:100030000C945D000C945D000C945D000C945D00CC
:100040000C9418020C945D000C9488020C946202CB
:100050000C945D000C945D000C945D000C945D00AC
:100060000C945D000C945D008B0311241FBECFEF38
:10007000D8E0DEBFCDBF11E0A0E0B1E0E4ECF7E0F6
:1000800002C005900D92AA34B107D9F721E0AAE485
:10009000B1E001C01D92A03FB207E1F710E0C5E357
:1000A000D0E004C02197FE010E94DA03C433D107D7
:1000B000C9F70E94BA020C94E0030C9400003FB709
:1000C000F89480914F0190915001A0915101B0910D
:1000D000520126B5A89B05C02F3F19F00196A11D1E
:1000E000B11D3FBFBA2FA92F982F8827BC01CD0182
:1000F000620F711D811D911D42E0660F771F881FE1
:10010000991F4A95D1F708958F929F92AF92BF920F
:10011000CF92DF92EF92FF920E945F004B015C0151
:1001200088EEC82E83E0D82EE12CF12C0E945F00CF
:10013000681979098A099B09683E73408105910510
:10014000A8F321E0C21AD108E108F10888EE880E70
:1001500083E0981EA11CB11CC114D104E104F10478
:1001600029F7FF90EF90DF90CF90BF90AF909F90D6
:100170008F900895AF92BF92CF92DF92EF92FF924D
:100180000F931F93CF93DF936C017B018B01040FBF
:10019000151FEB015E01AE18BF08C017D10759F05B
:1001A0006991D601ED91FC910190F081E02DC6019D
:1001B0000995892B79F7C501DF91CF911F910F9197
:1001C000FF90EF90DF90CF90BF90AF900895FC012B
:1001D000538D448D252F30E0842F90E0821B930BAC
:1001E000541710F0CF96089501970895FC01918D52
:1001F000828D981761F0A28DAE0FBF2FB11D5D9655
:100200008C91928D9F5F9F73928F90E008958FEFF6
:100210009FEF0895FC01918D828D981731F0828DAA
:10022000E80FF11D858D90E008958FEF9FEF089501
:10023000FC01918D228D892F90E0805C9F4F821B65
:1002400091098F739927089583E591E00E94180121
:1002500021E0892B09F420E0822F089580E090E0CE
:10026000892B29F00E94240181110C94000008952B
:10027000FC01A48DA80FB92FB11DA35ABF4F2C911B
:10028000848D90E001968F739927848FA689B78912
:100290002C93A089B1898C91837080648C93938D09
:1002A000848D981306C00288F389E02D80818F7DAC
:1002B00080830895EF92FF920F931F93CF93DF9364
:1002C000EC0181E0888F9B8D8C8D98131AC0E88992
:1002D000F989808185FF15C09FB7F894EE89FF8961
:1002E0006083E889F98980818370806480839FBFFF
:1002F00081E090E0DF91CF911F910F91FF90EF90FF
:100300000895F62E0B8D10E00F5F1F4F0F7311270E
:10031000E02E8C8D8E110CC00FB607FCFACFE88949
:10032000F989808185FFF5CFCE010E943801F1CF98
:10033000EB8DEC0FFD2FF11DE35AFF4FF0829FB7BD
:10034000F8940B8FEA89FB8980818062CFCFCF93AD
:10035000DF93EC01888D8823B9F0AA89BB89E889ED
:10036000F9898C9185FD03C0808186FD0DC00FB693
:1003700007FCF7CF8C9185FFF2CF808185FFEDCF11
:10038000CE010E943801E9CFDF91CF910895FC01A1
:1003900001900020E9F73197AF01481B590BBC01D0
:1003A00083E591E00C94BA008F929F92AF92BF9236
:1003B0000F931F93CF93DF93CDB7DEB7A1970FB6FF
:1003C000F894DEBF0FBECDBF19A2423008F44AE058
:1003D0008E010F5D1F4F842E912CB12CA12CA501F5
:1003E00094010E94B803E62FB901CA01EA30F4F47F
:1003F000E05DD801EE938D01232B242B252B79F77B
:1004000090E080E0109719F0CD010E94C701A196FD
:100410000FB6F894DEBF0FBECDBFDF91CF911F9115
:100420000F91BF90AF909F908F900895E95CE1CFBE
:100430001F920F920FB60F9211242F933F938F9319
:100440009F93AF93BF9380914B0190914C01A091EA
:100450004D01B0914E0130914A0123E0230F2D3719
:1004600058F50196A11DB11D20934A0180934B01BF
:1004700090934C01A0934D01B0934E0180914F0198
:1004800090915001A0915101B09152010196A11D8E
:10049000B11D80934F0190935001A0935101B093EF
:1004A0005201BF91AF919F918F913F912F910F90EA
:1004B0000FBE0F901F90189526E8230F0296A11DDE
:1004C000B11DD2CF1F920F920FB60F9211242F930E
:1004D0003F934F935F936F937F938F939F93AF93CC
:1004E000BF93EF93FF9383E591E00E943801FF9162
:1004F000EF91BF91AF919F918F917F916F915F919C
:100500004F913F912F910F900FBE0F901F90189514
:100510001F920F920FB60F9211242F938F939F93D8
:10052000EF93FF93E0916301F09164018081E0918A
:100530006901F0916A0182FD1BC0908180916C017C
:100540008F5F8F7320916D01821741F0E0916C01F4
:10055000F0E0ED5AFE4F958F80936C01FF91EF9183
:100560009F918F912F910F900FBE0F901F90189514
:100570008081F4CF789484B5826084BD84B5816035
:1005800084BD85B5826085BD85B5816085BD80915E
:100590006E00816080936E001092810080918100D6
:1005A00082608093810080918100816080938100CE
:1005B000809180008160809380008091B100846090
:1005C0008093B1008091B00081608093B0008091F1
:1005D0007A00846080937A0080917A0082608093B0
:1005E0007A0080917A00816080937A0080917A000D
:1005F000806880937A001092C10084B18F6384B9BF
:1006000015B8E0916301F091640182E08083E0918C
:100610005F01F09160011082E0916101F09162014F
:100620008FEC808310926B01E0916701F09168017B
:1006300086E08083E0916501F091660180818061B0
:100640008083E0916501F0916601808188608083FC
:10065000E0916501F0916601808180688083E0917E
:100660006501F091660180818F7D808383E191E057
:100670000E94C70185E391E00E94C7014AE060E063
:1006800074E284EF90E00E94D40185E391E00E943F
:10069000C7010E9484000BEA15E120E0E22E20E071
:1006A000F22E2091000130E025FB882780F9220FEF
:1006B000331F822B8F738093000185B9C801019786
:1006C000F1F788E391E00E94C701C5E0D0E06091B6
:1006D000000170E00C2E02C0759567950A94E2F750
:1006E00061707727072E000C880B990B4AE00E9457
:1006F000D401219760F785E391E00E94C7010E9431
:100700008400E114F10469F20E942401882349F273
:100710000E940000C6CFE3E5F1E01382128288EE6A
:1007200093E0A0E0B0E084839583A683B78385E05F
:1007300091E09183808385EC90E09587848784ECB9
:1007400090E09787868780EC90E0918B808B81EC9E
:1007500090E0938B828B82EC90E0958B848B86EC7F
:1007600090E0978B868B118E128E138E148E0895C7
:10077000A1E21A2EAA1BBB1BFD010DC0AA1FBB1FA5
:10078000EE1FFF1FA217B307E407F50720F0A21B17
:10079000B30BE40BF50B661F771F881F991F1A9484
:1007A00069F760957095809590959B01AC01BD01AE
:1007B000CF010895EE0FFF1F0590F491E02D0994ED
:0407C000F894FFCFDB
:1007C40007000000005A01BA00E700A7011801F66B
:1007D400000A01436F6E74726F6C61646F722064FF
:1007E4006520696E766572736F7220696E696369DC
:1007F40061646F2E000D0A00526567697374726F2D
:0A0804002061637475616C3A2000F6
:00000001FF
