:100000000C9434000C9451000C9451000C94E900B1
:100010000C9451000C9451000C9451000C9451001C
:100020000C9451000C9451000C9451000C94C2009B
:100030000C9451000C9451000C9451000C945100FC
:100040000C9478000C9451000C9451000C945100C5
:100050000C9451000C9451000C9451000C945100DC
:100060000C9451000C94510011241FBECFEFD8E026
:10007000DEBFCDBF11E0A0E0B1E0E2E7F3E002C0F7
:1000800005900D92A230B107D9F721E0A2E0B1E0CE
:1000900001C01D92AD30B207E1F70E940D010C9432
:1000A000B7010C9400003FB7F8948091090190913A
:1000B0000A01A0910B01B0910C0126B5A89B05C0C7
:1000C0002F3F19F00196A11DB11D3FBFBA2FA92FD7
:1000D000982F8827BC01CD01620F711D811D911DD4
:1000E00042E0660F771F881F991F4A95D1F7089540
:1000F0001F920F920FB60F9211242F933F938F935D
:100100009F93AF93BF938091050190910601A091B9
:100110000701B09108013091040123E0230F2D372E
:1001200058F50196A11DB11D20930401809305018E
:1001300090930601A0930701B093080180910901F3
:1001400090910A01A0910B01B0910C010196A11DA3
:10015000B11D8093090190930A01A0930B01B09304
:100160000C01BF91AF919F918F913F912F910F9073
:100170000FBE0F901F90189526E8230F0296A11D21
:10018000B11DD2CF1F920F920FB60F9211248F93F1
:100190009F9380910301882379F0299A83E290E06C
:1001A0000197F1F72998109203019F918F910F9079
:1001B0000FBE0F901F901895809102018823A9F31C
:1001C0002A9A83E290E00197F1F72A9810920201AF
:1001D000ECCF1F920F920FB60F9211248F939F9323
:1001E00081E0189B17C08093030110928500109244
:1001F00084008091000190910101880F991F9093D4
:100200008900809388009F918F910F900FBE0F906F
:100210001F90189580930201E8CF789484B582608E
:1002200084BD84B5816084BD85B5826085BD85B59A
:10023000816085BD80916E00816080936E00109218
:100240008100809181008260809381008091810093
:100250008160809381008091800081608093800024
:100260008091B10084608093B1008091B000816082
:100270008093B00080917A00846080937A008091AE
:100280007A00826080937A0080917A008160809306
:100290007A0080917A00806880937A001092C10081
:1002A00086E084B985B1897F85B9809168008160D5
:1002B0008093680080916B00816080936B007894DC
:1002C0001092800088E0809381008091810082609C
:1002D0008093810080E89EE390938900809388005A
:1002E00080916F00826080936F00C0E0D0E001E0F9
:1002F00010E0809100019091010180389E4348F008
:100300001093010100930001209799F30E940000CF
:10031000F0CF80910001909101010A969093010124
:10032000809300010E9453004B015C0189E1C82EBB
:10033000D12CE12CF12C0E945300681979098A090B
:100340009B09683E734081059105A8F381E0C81AB6
:10035000D108E108F10828EE820E23E0921EA11CCC
:10036000B11CC114D104E104F10429F7CDCFF894F4
:02037000FFCFBD
:02037200320057
:00000001FF
